:10000000123E123923212329123832009231123044
:100010001234343456340034123C123A3F00120782
:100020009207920792071207123D923D923D1205E8
:1000300092059205123792379237123592359235E2
:1000400012369236923612099209920912039203DD
:100050009203120B920B920B120A920A920A120F3F
:10006000920F920F120492049204120892089208BE
:10007000120D920D920D120C920C920C1202920221
:100080009202123B923B923B120E920E920E12067D
:10009000920692060B000A00000164000000620054
:1000A0000100090008006300FF3200339201920052
:1000B0006700921192159219921D003140317F31E3
:1000C000383116313431123110001400110015008E
:1000D0001200160013001700003F403F3F3F383F1B
:1000E000163F343F523F18001C0019001D001A0033
:1000F0001E001B001F00803FC03FBF3FB83F963F20
:10010000B43FD23F0318120A0318920A0318920A46
:100110008318120A8318920A8318920A2329031853
:10012000232983182329031C2329831C2329031D26
:10013000232903192329031083100311120892099C
:10014000120A9209920A9209920A0314831403155F
:10015000031C831C031883180319031D03181203BF
:10016000031892030318920383181203831892034F
:10017000831892039208D0317826D031782E23212B
:100180002329013402340334343412341134223438
:0E04000001000200030034001200330044002B
:020000040001F9
:1000000012003400560078001200340056007800C8
:04000E00AA25AA2550
:00000001FF
