:104000008894D894F894A894C894E894B894989410
:104010000995099400000895189508945894789487
:10402000289448946894389418948895A895111CFD
:10403000121C141C181C101E211C411C811C011D6B
:10404000110C120C140C180C100E210C410C810CCC
:10405000010D1120122014201820102221204120AF
:104060008120012111141214141418141016211493
:1040700041148114011511041204140418041006CB
:1040800021044104810401051110121014101810AC
:104090001012211041108110011111241224142436
:1040A000182410262124412481240125112C122CAE
:1040B000142C182C102E212C412C812C012D112870
:1040C000122814281828102A21284128812801297B
:1040D0001108120814081808100A2108410881085C
:1040E00001091118121814181818101A211841185B
:1040F000811801190196129624963896409690964A
:1041000021963296049618966096B09611701270A9
:104110001470187010711072107410782170417042
:10412000817018771675147312711E7F1D7F1B7FA7
:10413000177F1F7E1F7D1F7B1F772E7F4E7F8E7FF9
:104140001130123014301830103110321034103851
:1041500021304130813011E012E014E018E010E12C
:1041600010E210E410E821E041E081E0116012600B
:104170001460186010611062106410682160416062
:104180008160114012401440184010411042104408
:104190001048214041408140019712972497389759
:1041A0004097909721973297049718976097B09708
:1041B0001160126014601860106110621064106861
:1041C00021604160816011501250145018501051FC
:1041D000105210541058215041508150159425947C
:1041E000459485940595112422244424882400278D
:1041F000109420944094809400951A942A944A94A0
:104200008A940A9513942394439483940395110CF0
:10421000220C440C880C000F169426944694869425
:104220000695119421944194819401951F902F90AB
:104230004F908F900F911F922F924F928F920F93CA
:10424000111C221C441C881C001F1794279447949F
:10425000879407951FEF2FEF4FEF8FEF1294229463
:104260004294829402951120222044208820002329
:1042700001F601F781F7C1F7E1F7F1F701F409F46D
:1042800011F421F441F481F401F502F404F401F293
:1042900001F381F3C1F3E1F3F1F301F009F011F05F
:1042A00021F041F081F001F102F004F000F600F796
:1042B00080F7C0F7E0F7F0F700F408F410F420F40A
:1042C00040F480F400F500F200F380F3C0F3E0F373
:1042D000F0F300F008F010F020F040F080F000F172
:1042E00001F201F381F3C1F3E1F3F1F301F009F01D
:1042F00011F021F041F081F001F104F604F784F7A8
:10430000C4F7E4F7F4F704F40CF414F424F444F4DC
:1043100084F404F505F605F785F7C5F7E5F7F5F735
:1043200005F40DF415F425F445F485F405F505F2CE
:1043300005F385F3C5F3E5F3F5F305F00DF015F09E
:1043400025F045F085F005F107F607F787F7C7F781
:10435000E7F7F7F707F40FF417F427F447F487F4B7
:1043600007F507F207F387F3C7F3E7F3F7F307F06F
:104370000FF017F027F047F087F007F100F200F395
:1043800080F3C0F3E0F3F0F300F008F010F020F059
:1043900040F080F000F104F204F384F3C4F3E4F39A
:1043A000F4F304F00CF014F024F044F084F004F181
:1043B00002F202F382F3C2F3E2F3F2F302F00AF044
:1043C00012F022F042F082F002F101F601F781F7DB
:1043D000C1F7E1F7F1F701F409F411F421F441F424
:1043E00081F401F502F602F782F7C2F7E2F7F2F77D
:1043F00002F40AF412F422F442F482F402F500F614
:1044000000F780F7C0F7E0F7F0F700F408F410F4D5
:1044100020F440F480F400F506F606F786F7C6F7B8
:10442000E6F7F6F706F40EF416F426F446F486F4EE
:1044300006F506F206F386F3C6F3E6F3F6F306F0A6
:104440000EF016F026F046F086F006F103F603F7BC
:1044500083F7C3F7E3F7F3F703F40BF413F423F450
:1044600043F483F403F503F203F383F3C3F3E3F3B9
:10447000F3F303F00BF013F023F043F083F003F1B8
:1044800000D800DC00DE00DF80DFC0DFE0DFF0DF2F
:10449000F8DFFCDFFEDF00D001D002D004D008D06E
:1044A00010D020D040D080D000D100D200D400C89D
:1044B00000CC00CE00CF80CFC0CFE0CFF0CFF8CF80
:1044C000FCCFFECF00C001C002C004C008C010C0B5
:1044D00020C040C080C000C100C200C40E940100D2
:1044E0000E9402000E9404000E9408000E94100026
:1044F0000E9420000E9440000E9480000E94000153
:104500000E9400020E9400040E9400080E94001005
:104510000E9400200E9400400E9400800F94000032
:104520001E9400002E9400004E9400008E94000013
:104530000E9500000C9401000C9402000C940400F1
:104540000C9408000C9410000C9420000C94400073
:104550000C9480000C9400010C9400020C94000454
:104560000C9400080C9400100C9400200C94004053
:104570000C9400800D9400001C9400002C9400000A
:104580004C9400008C9400000C95000011F812F877
:1045900014F821F841F881F801F911FA12FA14FA25
:1045A00021FA41FA81FA01FB11FC12FC14FC21FCF6
:1045B00041FC81FC01FD11FE12FE14FE21FE41FEB4
:1045C00081FE01FF09980A980C981198219841984A
:1045D0008198099A0A9A0C9A119A219A419A819A79
:1045E00009990A990C991199219941998199099BE5
:1045F0000A9B0C9B119B219B419B819B1C902C90A7
:104600004C908C900C911D902D904D908D900D9113
:104610001E902E904E908E900E911880288048808B
:1046200088800881199029904990899009911A9061
:104630002A904A908A900A9119802980498089801D
:1046400009811A801C801884188818A01080208086
:104650004080808000811190219041908190019153
:10466000129022904290829002911180218041808C
:1046700081800181128014801084108810A01C9207
:104680002C924C928C920C931D922D924D928D9265
:104690000D931E922E924E928E920E931882288225
:1046A00048828882088319922992499289920993B3
:1046B0001A922A924A928A920A93198229824982EC
:1046C000898209831A821C821886188A18A210828D
:1046D00020824082808200831192219241928192B5
:1046E000019312922292429282920293118221822B
:1046F000418281820183128214821086108A10A264
:104700001090010020900100409001008090010075
:104710000091010010900200109004001090080019
:104720001090100010902000109040001090800019
:1047300010900001109000021090000410900008EA
:1047400010900010109000201090004010900080F9
:10475000109201002092010040920100809201001D
:1047600000930100109202001092040010920800C1
:1047700010921000109220001092400010928000C1
:104780001092000110920002109200041092000892
:1047900010920010109200201092004010920080A1
:1047A000D89516902690469086900691179027905F
:1047B00047908790079111B021B041B081B001B10D
:1047C00012B014B018B010B210B411B821B841B87A
:1047D00081B801B912B814B818B810BA10BC9894BE
:1047E000A894C89418942894489418E718E716E5F4
:0447F00014E312E1DB
:00000001FF
