:100000000018D858B8CA88E8C8EA48086828406084
:1000100038F878AAA8BA8A9A989006B006F00630FE
:10002000F8D00210FE50FA70F069126D34126512A9
:100030006112711275127D341279341229122D3425
:100040001225122112311235123D34123934120E9A
:10005000341206120A0A16121E34122C34122412FA
:10006000C912CD3412C512C112D112D512DD34120B
:10007000D93412E012EC3412E412C012CC3412C49F
:1000800012CE3412C612D612DE341249124D341278
:1000900045124112511255125D3412593412EE3488
:1000A00012E612F612FE34124C34126C3412203462
:1000B00012A912AD3412A512A112B112B512BD349B
:1000C00012B93412A212AE3412A612BE3412B612F3
:1000D000A012AC3412A412B412BC34124E34124624
:1000E000124A4A56125E341209120D3412051201D8
:1000F00012111215121D34121934122E3412261236
:100100002A2A36123E34126E341266126A6A761247
:100110007E3412E912ED3412E512E112F112F512F9
:10012000FD3412F934128D34128512811291129518
:10013000129D34129934128E3412861296128C3417
:100140001284129412186912186D3412186512185C
:100150006112187112187512187D34121879341240
:1001600038E91238ED341238E51238E11238F1125C
:1001700038F51238FD341238F9341265EF6D12007B
:100180007D12002089F6A503FD0A05FA08F802F69B
:1001900009F407F204F001EE0CEC06EAD5F5E525CA
:1001A000456585C50B1589F635557595B500A97852
:0601B000A956A234A012C2
:00000001FF
