:100000000018D858B83ACA881AE8C8EA4808DA5A2C
:100010006828FA7A406038F878DBAAA8BA8A9A98F1
:10002000CB9006B006F00630F8D00210FE80FA50F1
:10003000F070F669126D3412651261127112751248
:100040007D3412793412721229122D3412251221A4
:1000500012311235123D341239341232120E34126A
:1000600006120A0A16121E341289122C3412241295
:1000700034123C3412C912CD3412C512C112D1123D
:10008000D512DD3412D93412D212E012EC3412E45B
:1000900012C012CC3412C412CE3412C6123A3AD65E
:1000A00012DE341249124D341245124112511255CA
:1000B000125D34125934125212EE3412E6121A1A28
:1000C000F612FE34124C34127C34126C341220348A
:1000D00012A912AD3412A512A112B112B512BD347B
:1000E00012B93412B212A212AE3412A612BE3412D7
:1000F000B612A012AC3412A412B412BC34124E3494
:100100001246124A4A56125E341209120D34120572
:10011000120112111215121D341219341212122E5C
:10012000341226122A2A36123E34126E3412661205
:100130006A6A76127E3412E912ED3412E512E11287
:10014000F112F512FD3412F93412F2128D341285C7
:10015000128112911295129D341299341292128EBC
:100160003412861296128C3412841294129C341219
:10017000641274129E34121C341214120C341204C1
:1001800012186912186D341218651218611218715C
:1001900012187512187D3412187934121872123828
:1001A000E91238ED341238E51238E11238F112381C
:1001B000F51238FD341238F9341238F2120F12FDEC
:1001C0007F12FA8F12F7FF12F4071277128712F7D5
:1001D000120F12E97F12E68F12E3FF12E007127787
:1001E000128712F71265EF6D12007D12002089F65A
:1001F000A503FD0A05FA08F802F609F407F204F06F
:1002000001EE0CEC06EAD5F5E525456585C50B152F
:10021000F00135557595B500A978A956A234A012FC
:00000001FF
